{
	"abi": [
		{
			"inputs": [
				{
					"internalType": "address",
					"name": "signerAccount",
					"type": "address"
				}
			],
			"stateMutability": "nonpayable",
			"type": "constructor"
		},
		{
			"inputs": [],
			"name": "admin",
			"outputs": [
				{
					"internalType": "address payable",
					"name": "",
					"type": "address"
				}
			],
			"stateMutability": "view",
			"type": "function"
		},
		{
			"inputs": [
				{
					"internalType": "string",
					"name": "",
					"type": "string"
				}
			],
			"name": "challengeLookup",
			"outputs": [
				{
					"internalType": "string",
					"name": "challengeId",
					"type": "string"
				},
				{
					"internalType": "address",
					"name": "challenger",
					"type": "address"
				},
				{
					"internalType": "address payable",
					"name": "challengee",
					"type": "address"
				},
				{
					"internalType": "uint256",
					"name": "bounty",
					"type": "uint256"
				},
				{
					"internalType": "uint256",
					"name": "distance",
					"type": "uint256"
				},
				{
					"internalType": "uint256",
					"name": "speed",
					"type": "uint256"
				},
				{
					"internalType": "uint256",
					"name": "issuedAt",
					"type": "uint256"
				},
				{
					"internalType": "bool",
					"name": "complete",
					"type": "bool"
				}
			],
			"stateMutability": "view",
			"type": "function"
		},
		{
			"inputs": [
				{
					"internalType": "string",
					"name": "",
					"type": "string"
				}
			],
			"name": "challengesArrayIndexLookup",
			"outputs": [
				{
					"internalType": "uint256",
					"name": "",
					"type": "uint256"
				}
			],
			"stateMutability": "view",
			"type": "function"
		},
		{
			"inputs": [
				{
					"internalType": "string",
					"name": "_challengeId",
					"type": "string"
				},
				{
					"internalType": "bytes32",
					"name": "_hashedMessage",
					"type": "bytes32"
				},
				{
					"internalType": "bytes",
					"name": "_signature",
					"type": "bytes"
				}
			],
			"name": "claimBounty",
			"outputs": [],
			"stateMutability": "nonpayable",
			"type": "function"
		},
		{
			"inputs": [],
			"name": "getChallenges",
			"outputs": [
				{
					"components": [
						{
							"internalType": "string",
							"name": "challengeId",
							"type": "string"
						},
						{
							"internalType": "address",
							"name": "challenger",
							"type": "address"
						},
						{
							"internalType": "address payable",
							"name": "challengee",
							"type": "address"
						},
						{
							"internalType": "uint256",
							"name": "bounty",
							"type": "uint256"
						},
						{
							"internalType": "uint256",
							"name": "distance",
							"type": "uint256"
						},
						{
							"internalType": "uint256",
							"name": "speed",
							"type": "uint256"
						},
						{
							"internalType": "uint256",
							"name": "issuedAt",
							"type": "uint256"
						},
						{
							"internalType": "bool",
							"name": "complete",
							"type": "bool"
						}
					],
					"internalType": "struct RunChallenger.Challenge[]",
					"name": "",
					"type": "tuple[]"
				}
			],
			"stateMutability": "view",
			"type": "function"
		},
		{
			"inputs": [
				{
					"internalType": "address payable",
					"name": "_challengee",
					"type": "address"
				},
				{
					"internalType": "uint256",
					"name": "_distance",
					"type": "uint256"
				},
				{
					"internalType": "uint256",
					"name": "_speed",
					"type": "uint256"
				},
				{
					"internalType": "uint256",
					"name": "_issuedAt",
					"type": "uint256"
				},
				{
					"internalType": "string",
					"name": "_challengeId",
					"type": "string"
				}
			],
			"name": "issueChallenge",
			"outputs": [],
			"stateMutability": "payable",
			"type": "function"
		},
		{
			"inputs": [],
			"name": "minimumBounty",
			"outputs": [
				{
					"internalType": "uint256",
					"name": "",
					"type": "uint256"
				}
			],
			"stateMutability": "view",
			"type": "function"
		},
		{
			"inputs": [],
			"name": "minimumDistance",
			"outputs": [
				{
					"internalType": "uint256",
					"name": "",
					"type": "uint256"
				}
			],
			"stateMutability": "view",
			"type": "function"
		},
		{
			"inputs": [],
			"name": "scaledTakeRate",
			"outputs": [
				{
					"internalType": "uint256",
					"name": "",
					"type": "uint256"
				}
			],
			"stateMutability": "view",
			"type": "function"
		},
		{
			"inputs": [],
			"name": "signer",
			"outputs": [
				{
					"internalType": "address",
					"name": "",
					"type": "address"
				}
			],
			"stateMutability": "view",
			"type": "function"
		}
	],
	"bytecode": {
		"object": "0x608060405234801561001057600080fd5b5060405161153c38038061153c83398101604081905261002f91610067565b600160008190558054336001600160a01b031991821617909155600280549091166001600160a01b0392909216919091179055610097565b60006020828403121561007957600080fd5b81516001600160a01b038116811461009057600080fd5b9392505050565b611496806100a66000396000f3fe6080604052600436106100915760003560e01c8063b7d1028811610059578063b7d1028814610172578063c549fa5c14610188578063cdf016ca1461019b578063db14d313146101b6578063f851a440146101ea57600080fd5b8063223f4b0f14610096578063238ac933146100be57806346c7c126146100f6578063a9ffeabc14610118578063b67ba5421461013a575b600080fd5b3480156100a257600080fd5b506100ab600481565b6040519081526020015b60405180910390f35b3480156100ca57600080fd5b506002546100de906001600160a01b031681565b6040516001600160a01b0390911681526020016100b5565b34801561010257600080fd5b5061010b61020a565b6040516100b59190610f38565b34801561012457600080fd5b5061013861013336600461103c565b61035b565b005b34801561014657600080fd5b506100ab6101553660046110cc565b805160208183018101805160058252928201919093012091525481565b34801561017e57600080fd5b506100ab61019081565b61013861019636600461117d565b610687565b3480156101a757600080fd5b506100ab66038d7ea4c6800081565b3480156101c257600080fd5b506101d66101d13660046110cc565b610a94565b6040516100b59897969594939291906111fc565b3480156101f657600080fd5b506001546100de906001600160a01b031681565b60606003805480602002602001604051908101604052809291908181526020016000905b8282101561035257838290600052602060002090600802016040518061010001604052908160008201805461026290611255565b80601f016020809104026020016040519081016040528092919081815260200182805461028e90611255565b80156102db5780601f106102b0576101008083540402835291602001916102db565b820191906000526020600020905b8154815290600101906020018083116102be57829003601f168201915b50505091835250506001828101546001600160a01b03908116602080850191909152600285015490911660408401526003840154606084015260048401546080840152600584015460a0840152600684015460c084015260079093015460ff16151560e0909201919091529183529201910161022e565b50505050905090565b6002600054036103b25760405162461bcd60e51b815260206004820152601f60248201527f5265656e7472616e637947756172643a207265656e7472616e742063616c6c0060448201526064015b60405180910390fd5b6002600081905554604080516020601f85018190048102820181019092528381526001600160a01b0390921691610406918691908690869081908401838280828437600092019190915250610b7a92505050565b6001600160a01b0316146104555760405162461bcd60e51b815260206004820152601660248201527529b4b3b732b9103737ba1030baba3437b934bd32b21760511b60448201526064016103a9565b6004828260405161046792919061128f565b9081526040519081900360200190205460ff16156104c75760405162461bcd60e51b815260206004820152601a60248201527f5369676e6174757265207761732075736564206265666f72652e00000000000060448201526064016103a9565b6000600686866040516104db92919061128f565b9081526040519081900360200190206002810154909150336001600160a01b03909116146105445760405162461bcd60e51b815260206004820152601660248201527529b2b73232b9103737ba1030baba3437b934bd32b21760511b60448201526064016103a9565b600781015460ff16156105995760405162461bcd60e51b815260206004820152601b60248201527f4368616c6c656e676520616c726561647920636f6d706c6574652e000000000060448201526064016103a9565b60078101805460ff191660011790556040516000906003906005906105c1908a908a9061128f565b908152602001604051809103902054815481106105e0576105e061129f565b600091825260209091206007600890920201908101805460ff191660019081179091556040519192509060049061061a908790879061128f565b908152604051908190036020018120805492151560ff1990931692909217909155600283015460038401546001600160a01b039091169181156108fc0291906000818181858888f19350505050158015610678573d6000803e3d6000fd5b50506001600055505050505050565b6001600160a01b0386166106dd5760405162461bcd60e51b815260206004820152601760248201527f5f6368616c6c656e67656520697320696e76616c69642e00000000000000000060448201526064016103a9565b60006001600160a01b0316600683836040516106fa92919061128f565b908152604051908190036020019020600201546001600160a01b0316146107635760405162461bcd60e51b815260206004820152601860248201527f5f6368616c6c656e6765496420697320696e76616c69642e000000000000000060448201526064016103a9565b66038d7ea4c680003410156107b15760405162461bcd60e51b81526020600482015260146024820152732137bab73a3c9034b9903a37b79039b6b0b6361760611b60448201526064016103a9565b6101908510156107fc5760405162461bcd60e51b81526020600482015260166024820152752234b9ba30b731b29034b9903a37b79039b6b0b6361760511b60448201526064016103a9565b60006108093460046112cb565b905060006108186064836112ea565b9050600060405180610100016040528086868080601f0160208091040260200160405190810160405280939291908181526020018383808284376000920191909152505050908252503360208201526001600160a01b038b166040820152606001610883843461130c565b815260200189815260200188815260200187815260200160001515815250905080600686866040516108b692919061128f565b908152604051908190036020019020815181906108d39082611372565b506020820151600180830180546001600160a01b039384166001600160a01b03199182161790915560408501516002850180549190941691161790915560608301516003808401919091556080840151600484015560a0840151600584015560c0840151600684015560e0909301516007909201805492151560ff199093169290921790915581549081018255600091909152815182916008027fc2575a0e9e593c00f959f8c92f12db2869c3395a3b0502d05e2516446f71f85b0190819061099c9082611372565b506020820151600180830180546001600160a01b039384166001600160a01b03199182161790915560408501516002850180549190941691161790915560608301516003808401919091556080840151600484015560a0840151600584015560c0840151600684015560e0909301516007909201805492151560ff19909316929092179091559054610a2e919061130c565b60058686604051610a4092919061128f565b908152604051908190036020018120919091556001546001600160a01b03169083156108fc029084906000818181858888f19350505050158015610a88573d6000803e3d6000fd5b50505050505050505050565b8051602081830181018051600682529282019190930120915280548190610aba90611255565b80601f0160208091040260200160405190810160405280929190818152602001828054610ae690611255565b8015610b335780601f10610b0857610100808354040283529160200191610b33565b820191906000526020600020905b815481529060010190602001808311610b1657829003601f168201915b50505060018401546002850154600386015460048701546005880154600689015460079099015497986001600160a01b039586169894909516965091945092909160ff1688565b6000806000610b898585610b9e565b91509150610b9681610c0c565b509392505050565b6000808251604103610bd45760208301516040840151606085015160001a610bc887828585610dc5565b94509450505050610c05565b8251604003610bfd5760208301516040840151610bf2868383610eb2565b935093505050610c05565b506000905060025b9250929050565b6000816004811115610c2057610c20611432565b03610c285750565b6001816004811115610c3c57610c3c611432565b03610c895760405162461bcd60e51b815260206004820152601860248201527f45434453413a20696e76616c6964207369676e6174757265000000000000000060448201526064016103a9565b6002816004811115610c9d57610c9d611432565b03610cea5760405162461bcd60e51b815260206004820152601f60248201527f45434453413a20696e76616c6964207369676e6174757265206c656e6774680060448201526064016103a9565b6003816004811115610cfe57610cfe611432565b03610d565760405162461bcd60e51b815260206004820152602260248201527f45434453413a20696e76616c6964207369676e6174757265202773272076616c604482015261756560f01b60648201526084016103a9565b6004816004811115610d6a57610d6a611432565b03610dc25760405162461bcd60e51b815260206004820152602260248201527f45434453413a20696e76616c6964207369676e6174757265202776272076616c604482015261756560f01b60648201526084016103a9565b50565b6000807f7fffffffffffffffffffffffffffffff5d576e7357a4501ddfe92f46681b20a0831115610dfc5750600090506003610ea9565b8460ff16601b14158015610e1457508460ff16601c14155b15610e255750600090506004610ea9565b6040805160008082526020820180845289905260ff881692820192909252606081018690526080810185905260019060a0016020604051602081039080840390855afa158015610e79573d6000803e3d6000fd5b5050604051601f1901519150506001600160a01b038116610ea257600060019250925050610ea9565b9150600090505b94509492505050565b6000806001600160ff1b03831681610ecf60ff86901c601b611448565b9050610edd87828885610dc5565b935093505050935093915050565b6000815180845260005b81811015610f1157602081850181015186830182015201610ef5565b81811115610f23576000602083870101525b50601f01601f19169290920160200192915050565b60006020808301818452808551808352604092508286019150828160051b87010184880160005b83811015610fec57603f1989840301855281516101008151818652610f8682870182610eeb565b838b01516001600160a01b03908116888d01528a850151168a880152606080850151908801526080808501519088015260a0808501519088015260c0808501519088015260e0938401511515939096019290925250509386019390860190600101610f5f565b509098975050505050505050565b60008083601f84011261100c57600080fd5b50813567ffffffffffffffff81111561102457600080fd5b602083019150836020828501011115610c0557600080fd5b60008060008060006060868803121561105457600080fd5b853567ffffffffffffffff8082111561106c57600080fd5b61107889838a01610ffa565b909750955060208801359450604088013591508082111561109857600080fd5b506110a588828901610ffa565b969995985093965092949392505050565b634e487b7160e01b600052604160045260246000fd5b6000602082840312156110de57600080fd5b813567ffffffffffffffff808211156110f657600080fd5b818401915084601f83011261110a57600080fd5b81358181111561111c5761111c6110b6565b604051601f8201601f19908116603f01168101908382118183101715611144576111446110b6565b8160405282815287602084870101111561115d57600080fd5b826020860160208301376000928101602001929092525095945050505050565b60008060008060008060a0878903121561119657600080fd5b86356001600160a01b03811681146111ad57600080fd5b9550602087013594506040870135935060608701359250608087013567ffffffffffffffff8111156111de57600080fd5b6111ea89828a01610ffa565b979a9699509497509295939492505050565b60006101008083526112108184018c610eeb565b6001600160a01b039a8b166020850152989099166040830152506060810195909552608085019390935260a084019190915260c0830152151560e09091015292915050565b600181811c9082168061126957607f821691505b60208210810361128957634e487b7160e01b600052602260045260246000fd5b50919050565b8183823760009101908152919050565b634e487b7160e01b600052603260045260246000fd5b634e487b7160e01b600052601160045260246000fd5b60008160001904831182151516156112e5576112e56112b5565b500290565b60008261130757634e487b7160e01b600052601260045260246000fd5b500490565b60008282101561131e5761131e6112b5565b500390565b601f82111561136d57600081815260208120601f850160051c8101602086101561134a5750805b601f850160051c820191505b8181101561136957828155600101611356565b5050505b505050565b815167ffffffffffffffff81111561138c5761138c6110b6565b6113a08161139a8454611255565b84611323565b602080601f8311600181146113d557600084156113bd5750858301515b600019600386901b1c1916600185901b178555611369565b600085815260208120601f198616915b82811015611404578886015182559484019460019091019084016113e5565b50858210156114225787850151600019600388901b60f8161c191681555b5050505050600190811b01905550565b634e487b7160e01b600052602160045260246000fd5b6000821982111561145b5761145b6112b5565b50019056fea2646970667358221220b4cde660f6cc73e64ebeeda9407b30b1dd8ff772214339181dc9f5852b8821c864736f6c634300080f0033",
		"linkReferences": {}
	},
	"methodIdentifiers": {
		"admin()": "f851a440",
		"challengeLookup(string)": "db14d313",
		"challengesArrayIndexLookup(string)": "b67ba542",
		"claimBounty(string,bytes32,bytes)": "a9ffeabc",
		"getChallenges()": "46c7c126",
		"issueChallenge(address,uint256,uint256,uint256,string)": "c549fa5c",
		"minimumBounty()": "cdf016ca",
		"minimumDistance()": "b7d10288",
		"scaledTakeRate()": "223f4b0f",
		"signer()": "238ac933"
	},
	"id": 9
}